{
  "transactions": [
    {
      "hash": "0xf4260f54be89aa9583c69e6c6a742b523d0cf5489fb9aa5dc173d009465bfe85",
      "transactionType": "CALL",
      "contractName": null,
      "contractAddress": "0x779877A7B0D9E8603169DdbD7836e478b4624789",
      "function": "transferAndCall(address,uint256,bytes)",
      "arguments": [
        "0x9DdfaCa8183c41ad55329BdeeD9F6A8d53168B1B",
        "3000000000000000000",
        "0x5157d9f1dca9e9b3183a3ee92978453bf8f6aeb789f37d7e1d11f1d323c8a320"
      ],
      "transaction": {
        "from": "0xF45eB98676B15199d71BE778cb72dc0F0352813D",
        "to": "0x779877A7B0D9E8603169DdbD7836e478b4624789",
        "gas": "0x14cbb",
        "value": "0x0",
        "input": "0x4000aea00000000000000000000000009ddfaca8183c41ad55329bdeed9f6a8d53168b1b00000000000000000000000000000000000000000000000029a2241af62c0000000000000000000000000000000000000000000000000000000000000000006000000000000000000000000000000000000000000000000000000000000000205157d9f1dca9e9b3183a3ee92978453bf8f6aeb789f37d7e1d11f1d323c8a320",
        "nonce": "0x9",
        "chainId": "0xaa36a7"
      },
      "additionalContracts": [],
      "isFixedGasLimit": false
    }
  ],
  "receipts": [
    {
      "status": "0x1",
      "cumulativeGasUsed": "0xf10c35",
      "logs": [
        {
          "address": "0x779877A7B0D9E8603169DdbD7836e478b4624789",
          "topics": [
            "0xddf252ad1be2c89b69c2b068fc378daa952ba7f163c4a11628f55a4df523b3ef",
            "0x000000000000000000000000f45eb98676b15199d71be778cb72dc0f0352813d",
            "0x0000000000000000000000009ddfaca8183c41ad55329bdeed9f6a8d53168b1b"
          ],
          "data": "0x00000000000000000000000000000000000000000000000029a2241af62c0000",
          "blockHash": "0xba3ea4b7ea46f63c8dd8e3b3debd27682e248e39411a5190cd34d1f4c43580a2",
          "blockNumber": "0x6b404b",
          "transactionHash": "0xf4260f54be89aa9583c69e6c6a742b523d0cf5489fb9aa5dc173d009465bfe85",
          "transactionIndex": "0x46",
          "logIndex": "0x50",
          "removed": false
        },
        {
          "address": "0x779877A7B0D9E8603169DdbD7836e478b4624789",
          "topics": [
            "0xe19260aff97b920c7df27010903aeb9c8d2be5d310a2c67824cf3f15396e4c16",
            "0x000000000000000000000000f45eb98676b15199d71be778cb72dc0f0352813d",
            "0x0000000000000000000000009ddfaca8183c41ad55329bdeed9f6a8d53168b1b"
          ],
          "data": "0x00000000000000000000000000000000000000000000000029a2241af62c0000000000000000000000000000000000000000000000000000000000000000004000000000000000000000000000000000000000000000000000000000000000205157d9f1dca9e9b3183a3ee92978453bf8f6aeb789f37d7e1d11f1d323c8a320",
          "blockHash": "0xba3ea4b7ea46f63c8dd8e3b3debd27682e248e39411a5190cd34d1f4c43580a2",
          "blockNumber": "0x6b404b",
          "transactionHash": "0xf4260f54be89aa9583c69e6c6a742b523d0cf5489fb9aa5dc173d009465bfe85",
          "transactionIndex": "0x46",
          "logIndex": "0x51",
          "removed": false
        },
        {
          "address": "0x9DdfaCa8183c41ad55329BdeeD9F6A8d53168B1B",
          "topics": [
            "0x1ced9348ff549fceab2ac57cd3a9de38edaaab274b725ee82c23e8fc8c4eec7a",
            "0x5157d9f1dca9e9b3183a3ee92978453bf8f6aeb789f37d7e1d11f1d323c8a320"
          ],
          "data": "0x0000000000000000000000000000000000000000000000015af1d78b58c400000000000000000000000000000000000000000000000000018493fba64ef00000",
          "blockHash": "0xba3ea4b7ea46f63c8dd8e3b3debd27682e248e39411a5190cd34d1f4c43580a2",
          "blockNumber": "0x6b404b",
          "transactionHash": "0xf4260f54be89aa9583c69e6c6a742b523d0cf5489fb9aa5dc173d009465bfe85",
          "transactionIndex": "0x46",
          "logIndex": "0x52",
          "removed": false
        }
      ],
      "logsBloom": "0x00000004000000000000000000000080000000000020000000000000020000000000010000000000000000000000000000000000000000000000000000000000000000000000000000000008000000000800000000000000000020000020000008000000000000010000000000000000000000000000000000000010000040000000000400000000000000010000800000000020000000000000000000000000000000000000000000000000012000000000000000000000000004000000000000000002000000000000000000000000000000000000000100000000000000000010000000000000800000000000000000000000000000000000000000000000",
      "type": "0x2",
      "transactionHash": "0xf4260f54be89aa9583c69e6c6a742b523d0cf5489fb9aa5dc173d009465bfe85",
      "transactionIndex": "0x46",
      "blockHash": "0xba3ea4b7ea46f63c8dd8e3b3debd27682e248e39411a5190cd34d1f4c43580a2",
      "blockNumber": "0x6b404b",
      "gasUsed": "0xf0e5",
      "effectiveGasPrice": "0x5ae969814",
      "from": "0xF45eB98676B15199d71BE778cb72dc0F0352813D",
      "to": "0x779877A7B0D9E8603169DdbD7836e478b4624789",
      "contractAddress": null
    }
  ],
  "libraries": [],
  "pending": [],
  "returns": {},
  "timestamp": 1730965694,
  "chain": 11155111,
  "commit": "4af42be"
}